:020000040800F2
:1000000000500020291A0008271A0008251A0008A5
:10001000251A0008251A0008251A0008000000000B
:10002000000000000000000000000000271A000887
:10003000271A000800000000271A0008271A0008E5
:10004000251A0008251A0008251A0008251A000894
:10005000251A0008251A0008251A0008251A000884
:10006000251A0008251A0008251A0008251A000874
:10007000251A0008251A0008251A0008251A000864
:10008000251A0008251A0008251A00080D0F000877
:10009000DD0E0008F50E0008251A0008251A0008D4
:1000A000251A0008251A0008251A0008251A000834
:1000B000251A0008251A0008251A0008251A000824
:1000C000251A0008251A0008251A0008251A000814
:1000D000251A0008251A0008251A0008251A000804
:1000E000251A0008251A0008251A0008251A0008F4
:1000F000251A0008251A0008251A0008251A0008E4
:10010000251A0008251A0008251A0008251A0008D3
:10011000251A0008251A0008251A0008251A0008C3
:10012000251A0008251A0008251A0008251A0008B3
:10013000251A0008251A0008251A0008530F000880
:10014000230F00083B0F0008251A0008251A000895
:1001500080B483B000AF0D4B00221A600C4B00221C
:100160001A6000237B607B68B3F5007F08DA094AD8
:100170007B68002142F823107B6801337B60F2E743
:1001800000BF0C37BD4680BC704700BF3808002058
:100190003C0800203800002080B485B000AF7860B3
:1001A0004FF0FF33FB600023BB60BB68FF2B0BDC11
:1001B0007B681B68FA681340FB60BB680133BB6057
:1001C0007B6804337B60F0E7FB68B3F1FF3F0CBF53
:1001D00001230023DBB218461437BD4680BC7047AC
:1001E00080B584B000AF78603960786801F0EAF8D3
:1001F0007B6803F580631846FFF7CEFF034683F064
:100200000103DBB2002B05D07B6803F58063184641
:1002100001F0D8F80023FB60FB68B3F5007F0FD234
:10022000FB689A007B68D018FB689B003A6813440F
:100230001B68194601F02CF9FB680133FB60EBE702
:1002400000BF1037BD4680BD80B483B000AF4FF40F
:1002500080137B607B68002B14BF01230023DBB27B
:10026000002B03D07B68013B7B60F3E700BF0C37BA
:10027000BD4680BC7047000080B582B000AF78609A
:10028000084B18687B681B8819467B6803F10802D5
:100290007B685B68DBB200F0EBFC00BF0837BD4653
:1002A00080BD00BF1000002080B582B000AF786034
:1002B0007B68082B01D908237B601A4B40F2DE7261
:1002C0001A80184B08225A60164B50221A72164B8D
:1002D0001A78144B5A72154B1A78124B9A727B6823
:1002E000DAB2104BDA72124B1B68DAB20D4B1A738A
:1002F0000F4B1B681B0ADAB20A4B5A730C4B1B6874
:100300001B0CDAB2074B9A73094B1B681B0EDAB24F
:10031000044BDA730348FFF7AFFF00BF0837BD4651
:1003200080BD00BF14000020270000202600002010
:100330002C00002080B500AF174B08225A60164BE6
:1003400043221A72154B1A78134B5A72144B1A78AF
:10035000114B9A72134B1B68DAB20F4BDA72124BC5
:100360001B68DAB20C4B1A730F4B1B681B0ADAB20C
:10037000094B5A730C4B1B681B0CDAB2064B9A7371
:10038000094B1B681B0EDAB2034BDA730248FFF706
:1003900073FF00BF80BD00BF1400002027000020B5
:1003A000260000203C0800203808002080B586B0D8
:1003B00000AFF860B9601346FB71BB683B61FB6836
:1003C00040F2DD72934240F08980474B1B78042B4A
:1003D00000F2828001A252F823F000BFF10300086E
:1003E000130400082F040008C3040008D9040008FF
:1003F0003B691A783D4B1A703D4B00221A603D4B09
:1004000000221A703C4B00221A60374B01221A70EE
:1004100063E03B691A78374B1A70BB685B68364AF1
:100420001360354B1B681A46344B1A6055E0FA7955
:10043000334B1B681344324A136000237B617B6992
:10044000012B12DC7B699B00BA681A44284B1B689D
:1004500012682C4941F82320254B1B680133244A9C
:1004600013607B6901337B61E9E7244B1A68FB79F0
:10047000D31A224A13601E4B1B68B3F5807F0ED03F
:100480001B4B1B68B3F5007F09D01C4B1B68002B6E
:1004900005DD1A4B1B681846FFF706FF1DE0174BDA
:1004A0001B68002B06DD104B1B780133DAB20E4BB4
:1004B0001A7012E00C4B1B780133DAB20A4B1A7037
:1004C0000BE0BB681B68104A1360074B1B780133B5
:1004D000DAB2054B1A7000E000BF00E000BF00BFB9
:1004E0001837BD4680BD00BF240000202500002035
:1004F00038080020260000202800002030000020BE
:100500002C000020380000203400002080B582B08C
:1005100000AF0346FB71064B1B78FA799A4202D171
:10052000FFF792FEF7E700BF0837BD4680BD00BF6A
:100530002400002080B5DEB000AF00F069F900F0C3
:10054000A3F900214FF0007000F0DEFF00F0AEF9DB
:1005500000F088F947F2305000F0F2FF00F0E0FFC1
:100560003B4601227249184600F0A0FA714A3B4608
:1005700013603B467049184600F008FA3B4640F2CB
:10058000DD71184600F064FA6C4B00221A706C4B57
:1005900000221A706B4B00221A606B4B00221A600B
:1005A000FFF752FE694B40F2DE721A80674B082259
:1005B0005A60664B32221A726448FFF75DFEFFF7FD
:1005C00043FE634B1B78AA2B40F0A280FFF7C0FDCF
:1005D0005E4B53221A725D48FFF74EFE574B1B7855
:1005E000002B02D1FFF730FEF8E700F037FF544B45
:1005F0001A78524B1B789A427ED8564B00221A60CA
:100600004FF40013C7F8743100F07EFE524B022203
:100610001A700820FFF748FE002387F873314E4B0D
:100620001B78022B24D197F873214C4B1B689A42FC
:100630000AD04A4B1B6887F873314FF40013C7F890
:10064000743100F0A7FF04E0D7F87431013BC7F81C
:100650007431D7F87431002BE1D14FF40013C7F88F
:1006600074313A4B54221A723848FFF705FED6E728
:100670003B4B1B689B003B4A13444FF48071184668
:1006800000F04AFEC7F86C01FFF754FE0320FFF7A5
:100690003DFF304B1B68D7F86C219A4225D1304B77
:1006A0001B6803F580732E4A13602D4B1B68B3F54E
:1006B000007F05D0224B1A78204B1B789A420DD12F
:1006C000294B1B6827491846FFF78AFD264B1B68F4
:1006D00003F50063244A1360FFF73AFD184B1B78BB
:1006E0000133DAB2164B1A7081E7184B45221A72A1
:1006F0001648FFF7C1FD7AE700F0BCFEFFF7A4FD46
:10070000124B44221A721148FFF7B6FDFFF79CFD09
:10071000164B1B68C7F86831154B164A1A60D7F894
:10072000683198470023184607F5BC77BD4680BD61
:100730000064004010000020AD03000826000020E7
:1007400027000020280000202C000020140000209A
:10075000250000203400002024000020380800205C
:100760003C08002038000020000000200440000861
:1007700008ED00E00040000880B500AF00F05CFE2E
:10078000022000F061FE042000F040FF042000F091
:1007900035FF002000F09AFF032000F037FF032010
:1007A00000F02CFF002001F029F8032001F008F8E8
:1007B000042001F019F8002001F00CF8002000F0EE
:1007C00055FF062000F08CFF012000F093FF002071
:1007D00000F09AFF002000F019FF002000F00EFF4B
:1007E000022000F073FF054B054A1A60054B064ACC
:1007F0001A60064B024A1A6000BF80BD0400002048
:100800000090D003080000200048E8010C00002000
:1008100080B500AFFFF7B0FF40F2023000F0F8FF04
:1008200040F2033000F0F4FF4FF4417000F0F0FFAD
:1008300040F2053000F0ECFF40F2063000F0E8FF37
:1008400040F2862000F0E4FF4FF4407000F0E0FF3B
:1008500040F2993000F0DCFF40F29A3000F0D8FF0F
:1008600000BF80BD80B500AFE021142001F034F955
:10087000142001F023F9E021132001F02DF91320B9
:1008800001F01CF900BF80BD80B500AF4FF41C71B2
:10089000032001F0ADF8002001F03EF8002001F047
:1008A0006DF8002001F048F800BF80BD80B586B02B
:1008B00000AF00F03FFD03463B613A692C4B134407
:1008C0009B02FB60FB68BB601421B86800F024FD4C
:1008D0007860BB681B6D7A689A4244D100237B61C3
:1008E0007B69092B3FDCBB687A6953F83230002BF7
:1008F00039D0BA687B69DB0013449B79002B01D0A7
:10090000002300E00223FB70BA687B69DB0013441C
:100910009B79002B01D0032300E00023BB70BB6850
:100920007A6953F83200BA687B69DB0013449B880C
:10093000FA78B97800F0B8FDBA687B69DB00134437
:10094000DB79002B0BD0BB687A6953F83200BA68A8
:100950007B69DB0013449B88194600F0DFFD7B694F
:1009600001337B61BCE700BF1837BD4680BD00BFC7
:10097000FDFF410080B485B000AFF860B960134658
:10098000FB7100BF1437BD4680BC704780B483B094
:1009900000AF786039607B683A68C3F8602100BFB7
:1009A0000C37BD4680BC704780B588B000AF78601A
:1009B00007F1140300221A605A6000233B617B6830
:1009C0005B68214A934205D0204B1B681B0A03F049
:1009D0003F0300E00023FB600023FB617B68D3F84A
:1009E0006431FA699A421EDA3B697A68F969A4317E
:1009F00032F811205B0007F120010B4423F80C2C86
:100A00003B6901333B613B69042B08D107F11403B7
:100A100007F10C0207F11001786800F01AFAFB697F
:100A20000133FB61DAE73B69002B08DD07F11403B2
:100A300007F10C0207F11001786800F00AFA00BF14
:100A40002037BD4680BD00BF00640040006A004002
:100A500080B582B000AF786039607B68D3F86431CC
:100A6000092B14DC7B68D3F864213B6899B27B685E
:100A7000A43223F812107B68D3F864315A1C7B68C7
:100A8000C3F864217868FFF78FFF012300E000239B
:100A900018460837BD4680BD80B483B000AF78608B
:100AA00000BF0C37BD4680BC7047000080B584B0E5
:100AB00000AFF860B9601346FB71FB6800221A6052
:100AC000FB68BA685A60FB680022C3F85C21FB68C7
:100AD000424AC3F86021FB680022C3F86421F86829
:100AE000FFF7DAFFBB683E4A934204D0BB683D4A39
:100AF00093422CD057E04FF40063022200213A4881
:100B000000F0D2FC4FF40061374800F007FD4FF4CD
:100B1000805302220321344800F0C6FC142000F068
:100B2000CDFFF021142000F0D7FF152000F0C6FF04
:100B3000F021152000F0D0FF132000F0BFFFF021BE
:100B4000132000F0C9FF294AFB6813602BE04FF423
:100B5000805302220021264800F0A6FC4FF4805169
:100B6000234800F0DBFC4FF400530222032120480D
:100B700000F09AFC402000F0A1FFF021402000F09E
:100B8000ABFF412000F09AFFF021412000F0A4FFCC
:100B90003F2000F093FFF0213F2000F09DFF134A1B
:100BA000FB68536000BFFB685B68184600F0DCF927
:100BB000FB791946F86800F01DF8FB685B680221B4
:100BC000184600F0D1FAFB685B681021184600F067
:100BD000CBFAFB6818461037BD4680BD7509000882
:100BE0000064004000680040000801404008002008
:100BF000000C0140B0B58CB00AAF78600B46FB70BA
:100C00007B685C68FA78194913465B0013449B00C3
:100C10000B441968FA78154813465B0013449B008F
:100C2000034404331868FA78104D13465B001344EC
:100C30009B002B4408331B68002208920022079275
:100C4000069305900491002303930023029300234D
:100C5000019300230093002301220021204600F08D
:100C60008FF900BF0837BD46B0BD00BF081B0008A4
:100C700080B586B002AFF860B9607A60FB70FB683F
:100C80005B680121184600F073FAFB6858687B68BE
:100C90000193FB78009300230022B96800F06DFAFD
:100CA0000346002B06DAFB68D3F85C31132B01DC1A
:100CB000012300E00023002B2ED0FB68D3F85C3129
:100CC000BA6891B2FA681B01134408330A461A80C5
:100CD000FB68D3F85C31FA78F9681B010B440C33DC
:100CE0001A60FB68D3F85C317A681268F9680133DE
:100CF0001B010B441A60FB68D3F85C317A685268B8
:100D0000F9681B010B4414331A60FB68D3F85C319B
:100D10005A1CFB68C3F85C21FB68D3F85C31002BDC
:100D200005DDFB685B680121184600F01DFA00BF75
:100D30001037BD4680BD000080B483B000AF78603E
:100D40007B68012B04DC054A7B6852F8233000E005
:100D5000002318460C37BD4680BC70474008002071
:100D600080B58CB006AF786039607B6858683B68A6
:100D7000D9B207F114020023059307F10803049385
:100D800007F11103039307F11003029307F1120314
:100D9000019307F1130300931346012200F05DFA5B
:100DA0007B68D3F8603178697A7C07F1080198474D
:100DB00000BF1837BD4680BD90B585B002AF7860E2
:100DC0007B68D3F85C31002B29DD7B6858687B6831
:100DD000D3F85C31013B7A681B01134408331B884C
:100DE0001C467B68D3F85C31013B7A681B011344D5
:100DF0000C331B68DBB27A68D2F85C21013A01320D
:100E0000120179680A4401920093002300222146CE
:100E100000F0B3F90346002B01DB012300E00023BF
:100E2000002B07D07B68D3F85C315A1E7B68C3F86F
:100E30005C21C5E77B68D3F85C31002B05D17B686A
:100E40005B680121184600F093F900BF0C37BD46DE
:100E500090BDF0B589B004AFF860B9607A603B60CE
:100E60007B681B681E463B681B885B0199B23B6828
:100E700002331B885B0198B23B6804331B885B011B
:100E80009CB23B6806331B885B019BB27A68126890
:100E900002F00102012502950192009323460246C9
:100EA000304600F051F9BB6800221A607B681B686D
:100EB0005A1C7B681A603B68063300221A803A6825
:100EC00004321B8813803B68023312881A801A8808
:100ED0003B681A8000BF1437BD46F0BD80B500AF37
:100EE0000020FFF729FF034600211846FFF738FFCF
:100EF00000BF80BD80B500AF0020FFF71DFF034697
:100F000001211846FFF72CFF00BF80BD80B500AF60
:100F10000020FFF711FF03461846FFF74DFF00BF03
:100F200080BD80B500AF0120FFF706FF034600211A
:100F30001846FFF715FF00BF80BD80B500AF012048
:100F4000FFF7FAFE034601211846FFF709FF00BF2D
:100F500080BD80B500AF0120FFF7EEFE03461846C6
:100F6000FFF72AFF00BF80BD044B98420CBF40F240
:100F7000192040F21A2000F059BC00BF0064004064
:100F80002DE9F3410468884624F0020404600468F3
:100F9000964644F0010404604FF6FF749DF820C0AB
:100FA0009DF824109DF828209DF83C609DF8407025
:100FB0000194019C051D013C019414B14468E407AF
:100FC000F7D52C68E4076ED50024C4610468B8F135
:100FD000000F4FD044F0800404600468BEF1000F9D
:100FE0004BD044F040040460002B49D0036843F028
:100FF000200303600368BCF1000F45D043F01003E9
:1010000003600368002942D043F0080303600368CB
:10101000002A3FD043F004030360C369002F3CD093
:1010200043F00043C361C369002E39D043F08043CD
:10103000C3610E9B0D99013BC3F309030B430C994C
:10104000C2690B430B990B431343C361036823F03D
:10105000010303604FF6FF730193019B013B019372
:1010600013B12B68DB07F8D4286800F0010002B048
:10107000BDE8F08124F08004AEE724F04004B2E73C
:10108000036823F02003B4E723F01003B8E723F04C
:101090000803BBE723F00403BEE723F00043C1E7E6
:1010A00023F08043C4E70120E1E70000F0B501250B
:1010B000244C9DF81C70D4F80066854046F001066B
:1010C000C4F80066D4F81CE6EE432EEA050EC4F818
:1010D0001CE641B3D4F80C162943C4F80C1632B3FD
:1010E000D4F804262A4300F1006000F6C840C4F892
:1010F0000426C0000360069A059B4360114BD2B1E1
:10110000D3F814262A43C3F8142627B1D3F81C2693
:101110001543C3F81C560B4AD2F8003623F00103DE
:10112000C2F80036F0BDD4F80C163140D5E7D4F83B
:1011300004263240D7E7D3F814261640C3F81466C5
:10114000E3E700BF0060004030B4BDF808409DF800
:10115000105044EA0344049542EA014302940122F8
:1011600030BC0021FFF7A2BF43690B4343617047C6
:10117000436923EA0103436170472DE9F04180464A
:1011800080689DF818E04501079E2AD4D8F8080029
:1011900004012AD4D8F80800C00050D54FF4D07507
:1011A000022005EB080422B3C90041F0040145F810
:1011B00008101BB1236843F002032360636823F027
:1011C0000F03636062680EF00F03134363600EF158
:1011D000FF33072B2AD8DFE803F02623201B18153E
:1011E000120E4FF4C0750020DBE74FF4C8750120E4
:1011F000D7E74905DBE70027F37963F31F67B37986
:1012000063F31747737963F30F27337963F30707A2
:101210004FF0000CF37863F31F6CB37863F3174C53
:10122000737863F30F2C337863F3070CC4F808C0AA
:10123000E760236843F001032360BDE8F0814FF0CD
:10124000FF30FAE721B9C36843F02003C360704759
:10125000036943F02003036170472DE9F3474FF41E
:10126000D876DDE90AA9DDE90C8EDDE90E4C4FF4F4
:10127000E075CDE9006502AD05EB810555F8085C28
:101280004759461917F0040715BF01278AF800705F
:101290008AF80070475916BF47597F0DFF081F6035
:1012A0004359C3F3400389F8003073681B0A88F878
:1012B0000030736803F00F038EF80030BCF1000FAC
:1012C00003D073681B0CACF80030B568F368C5F345
:1012D000072625706670C5F30746C5F30765E570F8
:1012E000C3F3072523716571C3F30745C3F3076390
:1012F000A670A571E37122B102B0BDE8F047FFF717
:10130000A1BF02B0BDE8F087024A936843F0010331
:101310009360704700300240002310B5044A8B42AE
:1013200001DB106810BD50F8234001331460F6E76C
:1013300000300240014BB3F8E007704700F0FF1F98
:1013400038B5064DEC68FFF7F5FFB0F5007F84BFB8
:10135000E86C044304F0350038BD00BF00200240B3
:1013600038B504460D4600F08DF8FFF7E3FFB0F501
:10137000007F124B17D9124A944214D91A6D42F0C9
:1013800001021A65258000F07DF8FFF7D3FFB0F564
:10139000007F0A4B0CD90A4A944209D91A6D22F0EF
:1013A00001021A6538BD1A6942F001021A61E9E7C3
:1013B0001A6922F001021A61F4E700BF002002401E
:1013C000FFFF070810B5044600F05CF8FFF7B2FF16
:1013D000B0F5007F164B1BD9164A944218D91A6DE6
:1013E00042F002021A655C651A6D42F040021A650D
:1013F00000F048F8FFF79EFFB0F5007F0C4B11D9C5
:101400000C4A94420ED91A6D22F002021A6510BDE0
:101410001A6942F002021A615C611A6942F04002E4
:101420001A61E5E71A6922F002021A61EFE700BFCC
:1014300000200240FFFF0708024A136843F0100330
:101440001360704700200240034A136823F007032B
:1014500003431360704700BF00200240034B044A5F
:101460005A6002F188325A60704700BF0020024083
:1014700023016745024A136943F0800313617047F3
:101480000020024008B5FFF75BFFC307FBD408BD8F
:1014900038B505460C4689B2FFF762FF210CA81C3F
:1014A000BDE83840FFF75CBF2DE9F04100264FF062
:1014B0000F0E9C46036847684CFA06F4E4071BD5F8
:1014C000072E94BF9846B846B4B24FEA84048ABF48
:1014D000203CA4B2A4B20EFA04F528EA0508A51C23
:1014E000ADB202FA05F501FA04F42C4344EA08040B
:1014F000072E94BF234627460136102EDCD1036009
:101500004760BDE8F0810000034A536823F0E063C0
:101510000B43034353607047000001400161704773
:101520004CF6CC42014B1A60704700BF00300040BF
:10153000024BD868C0F34000704700BF0030004045
:10154000C000012838BF0120002208B5411E5FEA13
:10155000113CD3B202F1010218D1062B84BF40F630
:10156000FF7106230A4AD068C007FCD445F25550E3
:1015700010605360FFF7DCFF0028FBD145F25553A4
:1015800013604AF6AA239160136008BD4008DDE7A6
:10159000003000404AF6AA22014B1A60704700BF93
:1015A00000300040062824D8DFE800F004090E13BC
:1015B000181D2000104B1868C0F3406070470E4B98
:1015C0001868C0F3C06070470B4B1868C0F34070D8
:1015D0007047094B1868C0F340407047064B1868C5
:1015E000C0F340007047044B186AF9E7024B586A91
:1015F000F6E70020704700BF00100240024608B521
:101600001046FFF7CFFF0028FAD008BD06282AD8D9
:10161000DFE800F0040A0F14191E2400124A1368B0
:1016200043F08073136070470F4A136843F0806380
:10163000F8E70D4A136843F08053F3E70A4A13684A
:1016400043F48033EEE7084A136843F00103E9E707
:10165000054A136A43F0010313627047024A536A52
:1016600043F00103536270470010024006282AD855
:10167000DFE800F0040A0F14191E2400124A136850
:1016800023F08073136070470F4A136823F0806360
:10169000F8E70D4A136823F08053F3E70A4A13680A
:1016A00023F48033EEE7084A136823F00103E9E7E7
:1016B000054A136A23F0010313627047024A536A12
:1016C00023F001035362704700100240034A53683D
:1016D00023F0030303435360704700BF0010024030
:1016E000034A536823F4701343EA804353607047FE
:1016F00000100240034A536823F4803343EA004356
:101700005360704700100240034A536823F40033CB
:1017100043EA40435360704700100240024B186A8E
:1017200000F40040704700BF00100240024A136AF4
:1017300043F40043136270470010024006283BD870
:10174000DFE800F035353525350415001B4B1A6AE6
:1017500042F001021A621A6A9007FCD51A6A22F452
:1017600040721A621A6A42F480721A627047134B0E
:101770005A6A42F001025A625A6A9107FCD51A6A03
:1017800022F440721A621A6A42F40072EDE70B4BBF
:101790001A6842F480321A601A689203FCD51A6AF9
:1017A00022F440721A621A6A42F44072DDE7034A78
:1017B000136A23F440731362704700BF00100240A5
:1017C000034A536823F4404343EA8033536070472D
:1017D00000100240034A536823F4605343EAC023D5
:1017E0005360704700100240034A536823F4E063DB
:1017F00043EA00235360704700100240034A5368D5
:1018000023F0F00343EA00135360704700100240D6
:101810000122430903F1804303F50433196800F002
:101820001F0002FA00F008431860704701224309C4
:1018300003F1804303F50433196800F01F0002FA36
:1018400000F0014319601A6822EA0000186070472E
:10185000054BD3F804289206FBD5D3F8042842F0B0
:101860001002C3F80428704700200040054BD3F84D
:10187000042822F01002C3F80428D3F804289206A2
:10188000FBD570470020004038B5044600254FF4D2
:101890006770FFF7BDFF40F29B30FFF7B9FF00F024
:1018A0002BF92046124CFFF749FFC4F80058C4F842
:1018B0000458FFF73BFFFFF7CBFF4FF6FF73C4F869
:1018C0000858C4F80C58C4F81858C4F81C58C4F880
:1018D0002038C4F82438FFF7C9FFD4F8043823F0BF
:1018E0000803C4F80438D4F804381B07FBD538BD06
:1018F0000020004008B5FFF7ABFF064B82B2C0F3F3
:101900000340C3F80C28C3F80808BDE80840FFF7F7
:10191000ADBF00BF0020004008B5FFF799FF054BA1
:10192000020C80B2C3F81828C3F81C08BDE80840B0
:10193000FFF79CBF0020004008B5FFF789FF012892
:101940000DD0022811D030B90B4AD2F8003843F03C
:101950000103C2F80038BDE80840FFF787BF064A18
:10196000D2F8003843F00203F3E7034AD2F8003814
:1019700043F00403EDE700BF0020004001280AD037
:1019800002280ED030B90A4AD2F8043823F00103F5
:10199000C2F804387047064AD2F8043823F002032C
:1019A000F6E7034AD2F8043823F00403F0E700BF57
:1019B0000020004008B54FF46770FFF729FF40F2A0
:1019C0009B30FFF725FF00F097F8084BD3F8042869
:1019D00022F00802C3F80428D3F804281107FBD525
:1019E000D3F804289206FBD508BD00BF00200040B4
:1019F00038B505464FF467700C46FFF709FF40F213
:101A00009B30FFF705FFFFF789FE18B1BDE83840AE
:101A1000FFF7D0BF2846FFF737FF2046BDE8384024
:101A2000FFF768BFFEE7704738B51A4A1A4B1B49E3
:101A30008B421AD300211A4A93421BD34FF0E02263
:101A4000D2F8143D174C43F40073174DC2F8143DFF
:101A5000AC4212D3154C164DAC4212D3FEF76AFDC0
:101A6000144C154DAC4210D338BD52F8040B43F85A
:101A7000040BDDE743F8041BDEE754F8043B98470A
:101A8000E6E754F8043B9847E6E754F8043B9847E8
:101A9000E8E700BF381B000800000020100000200D
:101AA00048080020381B0008381B0008381B0008B5
:101AB000381B0008381B0008381B000801224309A6
:101AC0009B0003F1604300F01F0003F5614302FA3D
:101AD00000F0186070470000432893BF00F1604099
:101AE000044B00F00F0000F564408CBFC15401703E
:101AF000704700BF14ED00E0024A136843F480739E
:101B000013607047007000400000090000004000B2
:101B10000800000000000900000040000400000070
:101B200000000C000000500002000000000009004E
:081B300000004000020000006B
:101B38000040000800127A0000127A0000127A00B1
:0400000508001A29AC
:00000001FF
